{
  "_format": "hh-sol-artifact-1",
  "contractName": "HackathonManager",
  "sourceName": "contracts/HackathonManager.sol",
  "abi": [
    {
      "inputs": [
        {
          "internalType": "address",
          "name": "spender",
          "type": "address"
        },
        {
          "internalType": "uint256",
          "name": "value",
          "type": "uint256"
        }
      ],
      "name": "approve",
      "outputs": [
        {
          "internalType": "bool",
          "name": "",
          "type": "bool"
        }
      ],
      "stateMutability": "nonpayable",
      "type": "function"
    },
    {
      "inputs": [
        {
          "internalType": "string",
          "name": "_name",
          "type": "string"
        },
        {
          "internalType": "string",
          "name": "_organisedby",
          "type": "string"
        },
        {
          "internalType": "string",
          "name": "_description",
          "type": "string"
        },
        {
          "internalType": "string",
          "name": "_date",
          "type": "string"
        },
        {
          "internalType": "string",
          "name": "_city",
          "type": "string"
        },
        {
          "internalType": "string",
          "name": "_exp",
          "type": "string"
        },
        {
          "internalType": "string",
          "name": "_category",
          "type": "string"
        }
      ],
      "name": "createHackathon",
      "outputs": [],
      "stateMutability": "payable",
      "type": "function"
    },
    {
      "inputs": [
        {
          "internalType": "uint256",
          "name": "initialSupply",
          "type": "uint256"
        }
      ],
      "stateMutability": "nonpayable",
      "type": "constructor"
    },
    {
      "inputs": [
        {
          "internalType": "address",
          "name": "spender",
          "type": "address"
        },
        {
          "internalType": "uint256",
          "name": "allowance",
          "type": "uint256"
        },
        {
          "internalType": "uint256",
          "name": "needed",
          "type": "uint256"
        }
      ],
      "name": "ERC20InsufficientAllowance",
      "type": "error"
    },
    {
      "inputs": [
        {
          "internalType": "address",
          "name": "sender",
          "type": "address"
        },
        {
          "internalType": "uint256",
          "name": "balance",
          "type": "uint256"
        },
        {
          "internalType": "uint256",
          "name": "needed",
          "type": "uint256"
        }
      ],
      "name": "ERC20InsufficientBalance",
      "type": "error"
    },
    {
      "inputs": [
        {
          "internalType": "address",
          "name": "approver",
          "type": "address"
        }
      ],
      "name": "ERC20InvalidApprover",
      "type": "error"
    },
    {
      "inputs": [
        {
          "internalType": "address",
          "name": "receiver",
          "type": "address"
        }
      ],
      "name": "ERC20InvalidReceiver",
      "type": "error"
    },
    {
      "inputs": [
        {
          "internalType": "address",
          "name": "sender",
          "type": "address"
        }
      ],
      "name": "ERC20InvalidSender",
      "type": "error"
    },
    {
      "inputs": [
        {
          "internalType": "address",
          "name": "spender",
          "type": "address"
        }
      ],
      "name": "ERC20InvalidSpender",
      "type": "error"
    },
    {
      "anonymous": false,
      "inputs": [
        {
          "indexed": true,
          "internalType": "address",
          "name": "owner",
          "type": "address"
        },
        {
          "indexed": true,
          "internalType": "address",
          "name": "spender",
          "type": "address"
        },
        {
          "indexed": false,
          "internalType": "uint256",
          "name": "value",
          "type": "uint256"
        }
      ],
      "name": "Approval",
      "type": "event"
    },
    {
      "inputs": [
        {
          "internalType": "uint256",
          "name": "_hackathonId",
          "type": "uint256"
        }
      ],
      "name": "joinHackathon",
      "outputs": [],
      "stateMutability": "payable",
      "type": "function"
    },
    {
      "inputs": [
        {
          "internalType": "uint256",
          "name": "_hackathonId",
          "type": "uint256"
        }
      ],
      "name": "releaseTokensToSponsors",
      "outputs": [],
      "stateMutability": "nonpayable",
      "type": "function"
    },
    {
      "inputs": [
        {
          "internalType": "uint256",
          "name": "_hackathonId",
          "type": "uint256"
        },
        {
          "internalType": "string",
          "name": "_name",
          "type": "string"
        },
        {
          "internalType": "uint256",
          "name": "_threshold",
          "type": "uint256"
        }
      ],
      "name": "sponsorHackathon",
      "outputs": [],
      "stateMutability": "payable",
      "type": "function"
    },
    {
      "inputs": [
        {
          "internalType": "address",
          "name": "to",
          "type": "address"
        },
        {
          "internalType": "uint256",
          "name": "value",
          "type": "uint256"
        }
      ],
      "name": "transfer",
      "outputs": [
        {
          "internalType": "bool",
          "name": "",
          "type": "bool"
        }
      ],
      "stateMutability": "nonpayable",
      "type": "function"
    },
    {
      "anonymous": false,
      "inputs": [
        {
          "indexed": true,
          "internalType": "address",
          "name": "from",
          "type": "address"
        },
        {
          "indexed": true,
          "internalType": "address",
          "name": "to",
          "type": "address"
        },
        {
          "indexed": false,
          "internalType": "uint256",
          "name": "value",
          "type": "uint256"
        }
      ],
      "name": "Transfer",
      "type": "event"
    },
    {
      "inputs": [
        {
          "internalType": "address",
          "name": "from",
          "type": "address"
        },
        {
          "internalType": "address",
          "name": "to",
          "type": "address"
        },
        {
          "internalType": "uint256",
          "name": "value",
          "type": "uint256"
        }
      ],
      "name": "transferFrom",
      "outputs": [
        {
          "internalType": "bool",
          "name": "",
          "type": "bool"
        }
      ],
      "stateMutability": "nonpayable",
      "type": "function"
    },
    {
      "inputs": [
        {
          "internalType": "uint256",
          "name": "_amount",
          "type": "uint256"
        }
      ],
      "name": "transferTokensToContract",
      "outputs": [],
      "stateMutability": "nonpayable",
      "type": "function"
    },
    {
      "inputs": [
        {
          "internalType": "address",
          "name": "owner",
          "type": "address"
        },
        {
          "internalType": "address",
          "name": "spender",
          "type": "address"
        }
      ],
      "name": "allowance",
      "outputs": [
        {
          "internalType": "uint256",
          "name": "",
          "type": "uint256"
        }
      ],
      "stateMutability": "view",
      "type": "function"
    },
    {
      "inputs": [
        {
          "internalType": "address",
          "name": "account",
          "type": "address"
        }
      ],
      "name": "balanceOf",
      "outputs": [
        {
          "internalType": "uint256",
          "name": "",
          "type": "uint256"
        }
      ],
      "stateMutability": "view",
      "type": "function"
    },
    {
      "inputs": [],
      "name": "decimals",
      "outputs": [
        {
          "internalType": "uint8",
          "name": "",
          "type": "uint8"
        }
      ],
      "stateMutability": "view",
      "type": "function"
    },
    {
      "inputs": [],
      "name": "getAllHackathons",
      "outputs": [
        {
          "components": [
            {
              "internalType": "string",
              "name": "name",
              "type": "string"
            },
            {
              "internalType": "string",
              "name": "organisedby",
              "type": "string"
            },
            {
              "internalType": "string",
              "name": "description",
              "type": "string"
            },
            {
              "internalType": "string",
              "name": "date",
              "type": "string"
            },
            {
              "internalType": "string",
              "name": "city",
              "type": "string"
            },
            {
              "internalType": "string",
              "name": "exp",
              "type": "string"
            },
            {
              "internalType": "string",
              "name": "category",
              "type": "string"
            },
            {
              "internalType": "address[]",
              "name": "hackers",
              "type": "address[]"
            },
            {
              "components": [
                {
                  "internalType": "address payable",
                  "name": "sponsorAddress",
                  "type": "address"
                },
                {
                  "internalType": "string",
                  "name": "name",
                  "type": "string"
                },
                {
                  "internalType": "uint256",
                  "name": "threshold",
                  "type": "uint256"
                },
                {
                  "internalType": "uint256",
                  "name": "lockedAmount",
                  "type": "uint256"
                },
                {
                  "internalType": "uint256",
                  "name": "tokenAmount",
                  "type": "uint256"
                }
              ],
              "internalType": "struct HackathonManager.Sponsor[]",
              "name": "sponsors",
              "type": "tuple[]"
            }
          ],
          "internalType": "struct HackathonManager.Hackathon[]",
          "name": "",
          "type": "tuple[]"
        }
      ],
      "stateMutability": "view",
      "type": "function"
    },
    {
      "inputs": [
        {
          "internalType": "uint256",
          "name": "_hackathonId",
          "type": "uint256"
        }
      ],
      "name": "getHackathonDetails",
      "outputs": [
        {
          "internalType": "string",
          "name": "",
          "type": "string"
        },
        {
          "internalType": "string",
          "name": "",
          "type": "string"
        },
        {
          "internalType": "string",
          "name": "",
          "type": "string"
        },
        {
          "internalType": "string",
          "name": "",
          "type": "string"
        },
        {
          "internalType": "string",
          "name": "",
          "type": "string"
        },
        {
          "internalType": "string",
          "name": "",
          "type": "string"
        },
        {
          "internalType": "string",
          "name": "",
          "type": "string"
        },
        {
          "internalType": "uint256",
          "name": "",
          "type": "uint256"
        }
      ],
      "stateMutability": "view",
      "type": "function"
    },
    {
      "inputs": [
        {
          "internalType": "uint256",
          "name": "_hackathonId",
          "type": "uint256"
        }
      ],
      "name": "getHackathonSponsors",
      "outputs": [
        {
          "components": [
            {
              "internalType": "address payable",
              "name": "sponsorAddress",
              "type": "address"
            },
            {
              "internalType": "string",
              "name": "name",
              "type": "string"
            },
            {
              "internalType": "uint256",
              "name": "threshold",
              "type": "uint256"
            },
            {
              "internalType": "uint256",
              "name": "lockedAmount",
              "type": "uint256"
            },
            {
              "internalType": "uint256",
              "name": "tokenAmount",
              "type": "uint256"
            }
          ],
          "internalType": "struct HackathonManager.Sponsor[]",
          "name": "",
          "type": "tuple[]"
        }
      ],
      "stateMutability": "view",
      "type": "function"
    },
    {
      "inputs": [
        {
          "internalType": "address",
          "name": "_hacker",
          "type": "address"
        }
      ],
      "name": "getHackerTokenBalance",
      "outputs": [
        {
          "internalType": "uint256",
          "name": "",
          "type": "uint256"
        }
      ],
      "stateMutability": "view",
      "type": "function"
    },
    {
      "inputs": [
        {
          "internalType": "uint256",
          "name": "_hackathonId",
          "type": "uint256"
        },
        {
          "internalType": "uint256",
          "name": "_sponsorIndex",
          "type": "uint256"
        }
      ],
      "name": "getSponsorDetails",
      "outputs": [
        {
          "internalType": "string",
          "name": "",
          "type": "string"
        },
        {
          "internalType": "uint256",
          "name": "",
          "type": "uint256"
        },
        {
          "internalType": "uint256",
          "name": "",
          "type": "uint256"
        },
        {
          "internalType": "uint256",
          "name": "",
          "type": "uint256"
        }
      ],
      "stateMutability": "view",
      "type": "function"
    },
    {
      "inputs": [],
      "name": "hackathonCount",
      "outputs": [
        {
          "internalType": "uint256",
          "name": "",
          "type": "uint256"
        }
      ],
      "stateMutability": "view",
      "type": "function"
    },
    {
      "inputs": [
        {
          "internalType": "uint256",
          "name": "",
          "type": "uint256"
        }
      ],
      "name": "hackathons",
      "outputs": [
        {
          "internalType": "string",
          "name": "name",
          "type": "string"
        },
        {
          "internalType": "string",
          "name": "organisedby",
          "type": "string"
        },
        {
          "internalType": "string",
          "name": "description",
          "type": "string"
        },
        {
          "internalType": "string",
          "name": "date",
          "type": "string"
        },
        {
          "internalType": "string",
          "name": "city",
          "type": "string"
        },
        {
          "internalType": "string",
          "name": "exp",
          "type": "string"
        },
        {
          "internalType": "string",
          "name": "category",
          "type": "string"
        }
      ],
      "stateMutability": "view",
      "type": "function"
    },
    {
      "inputs": [],
      "name": "name",
      "outputs": [
        {
          "internalType": "string",
          "name": "",
          "type": "string"
        }
      ],
      "stateMutability": "view",
      "type": "function"
    },
    {
      "inputs": [],
      "name": "symbol",
      "outputs": [
        {
          "internalType": "string",
          "name": "",
          "type": "string"
        }
      ],
      "stateMutability": "view",
      "type": "function"
    },
    {
      "inputs": [],
      "name": "totalSupply",
      "outputs": [
        {
          "internalType": "uint256",
          "name": "",
          "type": "uint256"
        }
      ],
      "stateMutability": "view",
      "type": "function"
    },
    {
      "inputs": [],
      "name": "xhacksToken",
      "outputs": [
        {
          "internalType": "contract ERC20",
          "name": "",
          "type": "address"
        }
      ],
      "stateMutability": "view",
      "type": "function"
    }
  ],
  "bytecode": "0x60806040523480156200001157600080fd5b5060405162002a1738038062002a17833981016040819052620000349162000198565b60405180604001604052806006815260200165584861636b7360d01b8152506040518060400160405280600481526020016358484b5360e01b815250816003908162000081919062000256565b50600462000090828262000256565b505050620000b43082670de0b6b3a7640000620000ae919062000338565b620000cd565b50600580546001600160a01b031916301790556200036e565b6001600160a01b038216620001285760405162461bcd60e51b815260206004820152601f60248201527f45524332303a206d696e7420746f20746865207a65726f206164647265737300604482015260640160405180910390fd5b80600260008282546200013c919062000358565b90915550506001600160a01b038216600081815260208181526040808320805486019055518481527fddf252ad1be2c89b69c2b068fc378daa952ba7f163c4a11628f55a4df523b3ef910160405180910390a35050565b505050565b600060208284031215620001ab57600080fd5b5051919050565b634e487b7160e01b600052604160045260246000fd5b600181811c90821680620001dd57607f821691505b602082108103620001fe57634e487b7160e01b600052602260045260246000fd5b50919050565b601f8211156200019357600081815260208120601f850160051c810160208610156200022d5750805b601f850160051c820191505b818110156200024e5782815560010162000239565b505050505050565b81516001600160401b03811115620002725762000272620001b2565b6200028a81620002838454620001c8565b8462000204565b602080601f831160018114620002c25760008415620002a95750858301515b600019600386901b1c1916600185901b1785556200024e565b600085815260208120601f198616915b82811015620002f357888601518255948401946001909101908401620002d2565b5085821015620003125787850151600019600388901b60f8161c191681555b5050505050600190811b01905550565b634e487b7160e01b600052601160045260246000fd5b808202811582820484141762000352576200035262000322565b92915050565b8082018082111562000352576200035262000322565b612699806200037e6000396000f3fe6080604052600436106101405760003560e01c806395d89b41116100b6578063c10771941161006f578063c107719414610371578063c810ff05146103a4578063d433ea0f146103d8578063d67faf11146103f8578063dd62ed3e14610418578063f3c633d01461043857600080fd5b806395d89b41146102ae57806396ab7739146102c3578063a457c2d7146102d9578063a5d400a2146102f9578063a9059cbb14610331578063b02ae0871461035157600080fd5b8063313ce56711610108578063313ce567146101f457806339509351146102105780633b6ecb1e1461023057806342ca6d581461024357806370a08231146102565780637bda08721461028c57600080fd5b806306fdde031461014557806307f0dd5614610170578063095ea7b31461018557806318160ddd146101b557806323b872dd146101d4575b600080fd5b34801561015157600080fd5b5061015a610468565b6040516101679190611e06565b60405180910390f35b61018361017e366004611ec3565b6104fa565b005b34801561019157600080fd5b506101a56101a0366004611fdf565b610684565b6040519015158152602001610167565b3480156101c157600080fd5b506002545b604051908152602001610167565b3480156101e057600080fd5b506101a56101ef366004612009565b61069e565b34801561020057600080fd5b5060405160128152602001610167565b34801561021c57600080fd5b506101a561022b366004611fdf565b6106c2565b61018361023e366004612045565b6106e4565b610183610251366004612095565b610792565b34801561026257600080fd5b506101c66102713660046120ae565b6001600160a01b031660009081526020819052604090205490565b34801561029857600080fd5b506102a161089e565b60405161016791906121a1565b3480156102ba57600080fd5b5061015a610e99565b3480156102cf57600080fd5b506101c660075481565b3480156102e557600080fd5b506101a56102f4366004611fdf565b610ea8565b34801561030557600080fd5b50600554610319906001600160a01b031681565b6040516001600160a01b039091168152602001610167565b34801561033d57600080fd5b506101a561034c366004611fdf565b610f23565b34801561035d57600080fd5b506101c661036c3660046120ae565b610f31565b34801561037d57600080fd5b5061039161038c366004612095565b610fa0565b60405161016797969594939291906122d6565b3480156103b057600080fd5b506103c46103bf366004612095565b61130a565b60405161016798979695949392919061235f565b3480156103e457600080fd5b506101836103f3366004612095565b6116b7565b34801561040457600080fd5b50610183610413366004612095565b611852565b34801561042457600080fd5b506101c66104333660046123f3565b611962565b34801561044457600080fd5b50610458610453366004612426565b61198d565b6040516101679493929190612448565b60606003805461047790612477565b80601f01602080910402602001604051908101604052809291908181526020018280546104a390612477565b80156104f05780601f106104c5576101008083540402835291602001916104f0565b820191906000526020600020905b8154815290600101906020018083116104d357829003601f168201915b5050505050905090565b3460041461054f5760405162461bcd60e51b815260206004820152601c60248201527f5374616b6520616d6f756e742073686f756c642062652034204554480000000060448201526064015b60405180910390fd5b60075460009081526006602052604090208061056b89826124f9565b506001810161057a88826124f9565b506002810161058987826124f9565b50600381018590556004810161059f85826124f9565b50600581016105ae84826124f9565b50600681016105bd83826124f9565b50600781018054600181018255600091825260209091200180546001600160a01b0319163390811790915560055460405163a9059cbb60e01b81526004810192909252673782dace9d90000060248301526001600160a01b03169063a9059cbb906044016020604051808303816000875af1158015610640573d6000803e3d6000fd5b505050506040513d601f19601f8201168201806040525081019061066491906125b9565b5060078054906000610675836125f1565b91905055505050505050505050565b600033610692818585611a7e565b60019150505b92915050565b6000336106ac858285611ba2565b6106b7858585611c1c565b506001949350505050565b6000336106928185856106d58383611962565b6106df919061260a565b611a7e565b6000838152600660209081526040808320815160a081018352338152808401878152928101869052346060820181905260808201526008820180546001808201835591875294909520815160059095020180546001600160a01b0319166001600160a01b03909516949094178455915190939192839290919082019061076a90826124f9565b5060408201518160020155606082015181600301556080820151816004015550505050505050565b346002146107e25760405162461bcd60e51b815260206004820152601c60248201527f5374616b6520616d6f756e742073686f756c64206265203220455448000000006044820152606401610546565b60008181526006602090815260408083206007810180546001810182559085529290932090910180546001600160a01b03191633908117909155600554915163a9059cbb60e01b81526004810191909152671bc16d674ec8000060248201526001600160a01b039091169063a9059cbb906044016020604051808303816000875af1158015610875573d6000803e3d6000fd5b505050506040513d601f19601f8201168201806040525081019061089991906125b9565b505050565b6060600060075467ffffffffffffffff8111156108bd576108bd611e20565b60405190808252806020026020018201604052801561093d57816020015b61092a6040518061012001604052806060815260200160608152602001606081526020016000815260200160608152602001606081526020016060815260200160608152602001606081525090565b8152602001906001900390816108db5790505b50905060005b600754811015610e9357600081815260066020526040908190208151610120810190925280548290829061097690612477565b80601f01602080910402602001604051908101604052809291908181526020018280546109a290612477565b80156109ef5780601f106109c4576101008083540402835291602001916109ef565b820191906000526020600020905b8154815290600101906020018083116109d257829003601f168201915b50505050508152602001600182018054610a0890612477565b80601f0160208091040260200160405190810160405280929190818152602001828054610a3490612477565b8015610a815780601f10610a5657610100808354040283529160200191610a81565b820191906000526020600020905b815481529060010190602001808311610a6457829003601f168201915b50505050508152602001600282018054610a9a90612477565b80601f0160208091040260200160405190810160405280929190818152602001828054610ac690612477565b8015610b135780601f10610ae857610100808354040283529160200191610b13565b820191906000526020600020905b815481529060010190602001808311610af657829003601f168201915b5050505050815260200160038201548152602001600482018054610b3690612477565b80601f0160208091040260200160405190810160405280929190818152602001828054610b6290612477565b8015610baf5780601f10610b8457610100808354040283529160200191610baf565b820191906000526020600020905b815481529060010190602001808311610b9257829003601f168201915b50505050508152602001600582018054610bc890612477565b80601f0160208091040260200160405190810160405280929190818152602001828054610bf490612477565b8015610c415780601f10610c1657610100808354040283529160200191610c41565b820191906000526020600020905b815481529060010190602001808311610c2457829003601f168201915b50505050508152602001600682018054610c5a90612477565b80601f0160208091040260200160405190810160405280929190818152602001828054610c8690612477565b8015610cd35780601f10610ca857610100808354040283529160200191610cd3565b820191906000526020600020905b815481529060010190602001808311610cb657829003601f168201915b5050505050815260200160078201805480602002602001604051908101604052809291908181526020018280548015610d3557602002820191906000526020600020905b81546001600160a01b03168152600190910190602001808311610d17575b5050505050815260200160088201805480602002602001604051908101604052809291908181526020016000905b82821015610e5b5760008481526020908190206040805160a081019091526005850290910180546001600160a01b031682526001810180549293919291840191610dac90612477565b80601f0160208091040260200160405190810160405280929190818152602001828054610dd890612477565b8015610e255780601f10610dfa57610100808354040283529160200191610e25565b820191906000526020600020905b815481529060010190602001808311610e0857829003601f168201915b50505050508152602001600282015481526020016003820154815260200160048201548152505081526020019060010190610d63565b5050505081525050828281518110610e7557610e7561261d565b60200260200101819052508080610e8b906125f1565b915050610943565b50919050565b60606004805461047790612477565b60003381610eb68286611962565b905083811015610f165760405162461bcd60e51b815260206004820152602560248201527f45524332303a2064656372656173656420616c6c6f77616e63652062656c6f77604482015264207a65726f60d81b6064820152608401610546565b6106b78286868403611a7e565b600033610692818585611c1c565b6005546040516370a0823160e01b81526001600160a01b03838116600483015260009216906370a0823190602401602060405180830381865afa158015610f7c573d6000803e3d6000fd5b505050506040513d601f19601f820116820180604052508101906106989190612633565b600660205260009081526040902080548190610fbb90612477565b80601f0160208091040260200160405190810160405280929190818152602001828054610fe790612477565b80156110345780601f1061100957610100808354040283529160200191611034565b820191906000526020600020905b81548152906001019060200180831161101757829003601f168201915b50505050509080600101805461104990612477565b80601f016020809104026020016040519081016040528092919081815260200182805461107590612477565b80156110c25780601f10611097576101008083540402835291602001916110c2565b820191906000526020600020905b8154815290600101906020018083116110a557829003601f168201915b5050505050908060020180546110d790612477565b80601f016020809104026020016040519081016040528092919081815260200182805461110390612477565b80156111505780601f1061112557610100808354040283529160200191611150565b820191906000526020600020905b81548152906001019060200180831161113357829003601f168201915b50505050509080600301549080600401805461116b90612477565b80601f016020809104026020016040519081016040528092919081815260200182805461119790612477565b80156111e45780601f106111b9576101008083540402835291602001916111e4565b820191906000526020600020905b8154815290600101906020018083116111c757829003601f168201915b5050505050908060050180546111f990612477565b80601f016020809104026020016040519081016040528092919081815260200182805461122590612477565b80156112725780601f1061124757610100808354040283529160200191611272565b820191906000526020600020905b81548152906001019060200180831161125557829003601f168201915b50505050509080600601805461128790612477565b80601f01602080910402602001604051908101604052809291908181526020018280546112b390612477565b80156113005780601f106112d557610100808354040283529160200191611300565b820191906000526020600020905b8154815290600101906020018083116112e357829003601f168201915b5050505050905087565b606080606060006060806060600080600660008b815260200190815260200160002090508060000181600101826002018360030154846004018560050186600601876007018054905087805461135f90612477565b80601f016020809104026020016040519081016040528092919081815260200182805461138b90612477565b80156113d85780601f106113ad576101008083540402835291602001916113d8565b820191906000526020600020905b8154815290600101906020018083116113bb57829003601f168201915b505050505097508680546113eb90612477565b80601f016020809104026020016040519081016040528092919081815260200182805461141790612477565b80156114645780601f1061143957610100808354040283529160200191611464565b820191906000526020600020905b81548152906001019060200180831161144757829003601f168201915b5050505050965085805461147790612477565b80601f01602080910402602001604051908101604052809291908181526020018280546114a390612477565b80156114f05780601f106114c5576101008083540402835291602001916114f0565b820191906000526020600020905b8154815290600101906020018083116114d357829003601f168201915b5050505050955083805461150390612477565b80601f016020809104026020016040519081016040528092919081815260200182805461152f90612477565b801561157c5780601f106115515761010080835404028352916020019161157c565b820191906000526020600020905b81548152906001019060200180831161155f57829003601f168201915b5050505050935082805461158f90612477565b80601f01602080910402602001604051908101604052809291908181526020018280546115bb90612477565b80156116085780601f106115dd57610100808354040283529160200191611608565b820191906000526020600020905b8154815290600101906020018083116115eb57829003601f168201915b5050505050925081805461161b90612477565b80601f016020809104026020016040519081016040528092919081815260200182805461164790612477565b80156116945780601f1061166957610100808354040283529160200191611694565b820191906000526020600020905b81548152906001019060200180831161167757829003601f168201915b505050505091509850985098509850985098509850985050919395975091939597565b600081116117195760405162461bcd60e51b815260206004820152602960248201527f5472616e7366657220616d6f756e74206d7573742062652067726561746572206044820152687468616e207a65726f60b81b6064820152608401610546565b6005546040516370a0823160e01b815233600482015282916001600160a01b0316906370a0823190602401602060405180830381865afa158015611761573d6000803e3d6000fd5b505050506040513d601f19601f820116820180604052508101906117859190612633565b10156117d35760405162461bcd60e51b815260206004820152601a60248201527f496e73756666696369656e7420746f6b656e2062616c616e63650000000000006044820152606401610546565b6005546040516323b872dd60e01b8152336004820152306024820152604481018390526001600160a01b03909116906323b872dd906064016020604051808303816000875af115801561182a573d6000803e3d6000fd5b505050506040513d601f19601f8201168201806040525081019061184e91906125b9565b5050565b6000818152600660205260408120905b60088201548110156108995760008260080182815481106118855761188561261d565b90600052602060002090600502019050806002015483600701805490501061194f57600554815460048301546001600160a01b039283169263a9059cbb9216906118d790670de0b6b3a764000061264c565b6040516001600160e01b031960e085901b1681526001600160a01b03909216600483015260248201526044016020604051808303816000875af1158015611922573d6000803e3d6000fd5b505050506040513d601f19601f8201168201806040525081019061194691906125b9565b50600060038201555b508061195a816125f1565b915050611862565b6001600160a01b03918216600090815260016020908152604080832093909416825291909152205490565b60008281526006602052604081206008810180546060939283928392839190889081106119bc576119bc61261d565b90600052602060002090600502019050806001018160020154826003015483600401548380546119eb90612477565b80601f0160208091040260200160405190810160405280929190818152602001828054611a1790612477565b8015611a645780601f10611a3957610100808354040283529160200191611a64565b820191906000526020600020905b815481529060010190602001808311611a4757829003601f168201915b505050505093509550955095509550505092959194509250565b6001600160a01b038316611ae05760405162461bcd60e51b8152602060048201526024808201527f45524332303a20617070726f76652066726f6d20746865207a65726f206164646044820152637265737360e01b6064820152608401610546565b6001600160a01b038216611b415760405162461bcd60e51b815260206004820152602260248201527f45524332303a20617070726f766520746f20746865207a65726f206164647265604482015261737360f01b6064820152608401610546565b6001600160a01b0383811660008181526001602090815260408083209487168084529482529182902085905590518481527f8c5be1e5ebec7d5bd14f71427d1e84f3dd0314c0f7b2291e5b200ac8c7c3b925910160405180910390a3505050565b6000611bae8484611962565b90506000198114611c165781811015611c095760405162461bcd60e51b815260206004820152601d60248201527f45524332303a20696e73756666696369656e7420616c6c6f77616e63650000006044820152606401610546565b611c168484848403611a7e565b50505050565b6001600160a01b038316611c805760405162461bcd60e51b815260206004820152602560248201527f45524332303a207472616e736665722066726f6d20746865207a65726f206164604482015264647265737360d81b6064820152608401610546565b6001600160a01b038216611ce25760405162461bcd60e51b815260206004820152602360248201527f45524332303a207472616e7366657220746f20746865207a65726f206164647260448201526265737360e81b6064820152608401610546565b6001600160a01b03831660009081526020819052604090205481811015611d5a5760405162461bcd60e51b815260206004820152602660248201527f45524332303a207472616e7366657220616d6f756e7420657863656564732062604482015265616c616e636560d01b6064820152608401610546565b6001600160a01b03848116600081815260208181526040808320878703905593871680835291849020805487019055925185815290927fddf252ad1be2c89b69c2b068fc378daa952ba7f163c4a11628f55a4df523b3ef910160405180910390a3611c16565b6000815180845260005b81811015611de657602081850181015186830182015201611dca565b506000602082860101526020601f19601f83011685010191505092915050565b602081526000611e196020830184611dc0565b9392505050565b634e487b7160e01b600052604160045260246000fd5b600082601f830112611e4757600080fd5b813567ffffffffffffffff80821115611e6257611e62611e20565b604051601f8301601f19908116603f01168101908282118183101715611e8a57611e8a611e20565b81604052838152866020858801011115611ea357600080fd5b836020870160208301376000602085830101528094505050505092915050565b600080600080600080600060e0888a031215611ede57600080fd5b873567ffffffffffffffff80821115611ef657600080fd5b611f028b838c01611e36565b985060208a0135915080821115611f1857600080fd5b611f248b838c01611e36565b975060408a0135915080821115611f3a57600080fd5b611f468b838c01611e36565b965060608a0135955060808a0135915080821115611f6357600080fd5b611f6f8b838c01611e36565b945060a08a0135915080821115611f8557600080fd5b611f918b838c01611e36565b935060c08a0135915080821115611fa757600080fd5b50611fb48a828b01611e36565b91505092959891949750929550565b80356001600160a01b0381168114611fda57600080fd5b919050565b60008060408385031215611ff257600080fd5b611ffb83611fc3565b946020939093013593505050565b60008060006060848603121561201e57600080fd5b61202784611fc3565b925061203560208501611fc3565b9150604084013590509250925092565b60008060006060848603121561205a57600080fd5b83359250602084013567ffffffffffffffff81111561207857600080fd5b61208486828701611e36565b925050604084013590509250925092565b6000602082840312156120a757600080fd5b5035919050565b6000602082840312156120c057600080fd5b611e1982611fc3565b600081518084526020808501945080840160005b838110156121025781516001600160a01b0316875295820195908201906001016120dd565b509495945050505050565b600081518084526020808501808196508360051b8101915082860160005b85811015612194578284038952815180516001600160a01b031685528581015160a08787018190529061216082880182611dc0565b604084810151908901526060808501519089015260809384015193909701929092525050978401979084019060010161212b565b5091979650505050505050565b60006020808301818452808551808352604092508286019150828160051b87010184880160005b838110156122c857603f19898403018552815161012081518186526121ef82870182611dc0565b915050888201518582038a8701526122078282611dc0565b915050878201518582038987015261221f8282611dc0565b9150506060808301518187015250608080830151868303828801526122448382611dc0565b9250505060a0808301518683038288015261225f8382611dc0565b9250505060c0808301518683038288015261227a8382611dc0565b9250505060e0808301518683038288015261229583826120c9565b9250505061010080830151925085820381870152506122b4818361210d565b9689019694505050908601906001016121c8565b509098975050505050505050565b60e0815260006122e960e083018a611dc0565b82810360208401526122fb818a611dc0565b9050828103604084015261230f8189611dc0565b905086606084015282810360808401526123298187611dc0565b905082810360a084015261233d8186611dc0565b905082810360c08401526123518185611dc0565b9a9950505050505050505050565b60006101008083526123738184018c611dc0565b90508281036020840152612387818b611dc0565b9050828103604084015261239b818a611dc0565b905087606084015282810360808401526123b58188611dc0565b905082810360a08401526123c98187611dc0565b905082810360c08401526123dd8186611dc0565b9150508260e08301529998505050505050505050565b6000806040838503121561240657600080fd5b61240f83611fc3565b915061241d60208401611fc3565b90509250929050565b6000806040838503121561243957600080fd5b50508035926020909101359150565b60808152600061245b6080830187611dc0565b6020830195909552506040810192909252606090910152919050565b600181811c9082168061248b57607f821691505b602082108103610e9357634e487b7160e01b600052602260045260246000fd5b601f82111561089957600081815260208120601f850160051c810160208610156124d25750805b601f850160051c820191505b818110156124f1578281556001016124de565b505050505050565b815167ffffffffffffffff81111561251357612513611e20565b612527816125218454612477565b846124ab565b602080601f83116001811461255c57600084156125445750858301515b600019600386901b1c1916600185901b1785556124f1565b600085815260208120601f198616915b8281101561258b5788860151825594840194600190910190840161256c565b50858210156125a95787850151600019600388901b60f8161c191681555b5050505050600190811b01905550565b6000602082840312156125cb57600080fd5b81518015158114611e1957600080fd5b634e487b7160e01b600052601160045260246000fd5b600060018201612603576126036125db565b5060010190565b80820180821115610698576106986125db565b634e487b7160e01b600052603260045260246000fd5b60006020828403121561264557600080fd5b5051919050565b8082028115828204841417610698576106986125db56fea26469706673582212208d5e916d3b3b47a2da52dfbda9f5049af414666e7b30d7baec94cf8c3b68ef9f64736f6c63430008110033",
  "linkReferences": {},
  "deployedLinkReferences": {}
}